S01400006275696C642F6E65747663722E737265633F
S113000000E4FF1F21040000A105000031190000D5
S1130010511900006119000071190000A1050000C8
S1130020A1050000A1050000A1050000E10E0000EB
S1130030A1050000A1050000A105000011180000A1
S1130040A1050000A1050000A1050000A105000014
S1130050A1050000A1050000A1050000A105000004
S1130060A1050000A1050000A1050000A1050000F4
S1130070A1050000A1050000A1050000A1050000E4
S1130080B1130000A1050000A1050000A1050000B6
S1130090A1050000A1050000A1050000A1050000C4
S11300A0A1050000A1050000A1050000A1050000B4
S11300B0A1050000A1050000A1050000A1050000A4
S11300C0A1050000A1050000A1050000A105000094
S11300D0A1050000A1050000A1050000A105000084
S11300E00115000061150000C11500002116000073
S11300F081160000A1050000A1050000A105000073
S1130400FFFFFFFFFFFFFFFFFFFFFFFF7EFBFFFF7D
S10B04100000000000000000E0
S113042072B6224880F30988022080F31488BFF34F
S11304306F8F00F075F801F00BFA1D481D491E4A34
S113044091423CBF41F8040BFAE71C49174A914218
S11304503CBF41F8040BFAE719491A4A1A4B9A426D
S11304603EBF51F8040B42F8040BF8E7002017498B
S1130470174A91423CBF41F8040BFAE700F068F8D0
S113048000F056F8134C144DAC4203DA54F8041B34
S11304908847F9E701F0F4F9104C114DAC4203DA46
S11304A054F8041B8847F9E700F04AB800E6FF1F38
S11304B05555555500E0FF1F00E4FF1F00E4FF1FE2
S11304C08821000000E6FF1F04E6FF1F08E6FF1F67
S11304D050E8FF1F10040000100400001004000086
S11304E010040000000000000000000000000000F4
S11304F02DE9F04FC1F80CD0C3689D46BDE8F08FDC
S1130500002383F311882846A047002000F0E8FA6E
S113051000F03EFA00DFFEE70000000000000000EB
S1130520704700BFAFF30080AFF30080AFF30080EB
S1130530704700BFAFF30080AFF30080AFF30080DB
S1130540FEE700BFAFF30080AFF30080AFF300809D
S1130550F0B4114E002506F1800796E81A00A34274
S11305600DD204391A4651F8040F42F8040BA24282
S1130570F9D3DA43144424F0030404342344F26822
S1130580934203D243F8045B9342FBD31036BE423A
S1130590E3D3F0BC704700BF601D0000AFF30080E0
S11305A0FEE700BFAFF30080AFF30080AFF300803D
S11305B0FEE700BFAFF30080AFF30080AFF300802D
S11305C01E4B1F4A1F48F0B500249C60DF681E4E76
S11305D01E4D4FF6FF0139400A43DA60F26842F0DB
S11305E08072F2600268202142F00102102602604B
S11305F083B0DE7783F8221000F0DAF800F058F8C0
S113060000F016FC00F05CFC2846402100F0D0F914
S1130610A5F1300301229861027784F3118862B650
S11306209B690B49996105F148000094D821094B55
S113063000F0E6F9084B836103B0F0BD00ED00E083
S11306400003FA05001000E0F0ED00E038E6FF1FBB
S1130650F01D0000B1050000E01D0000AFF30080B4
S1130660F8B5114DAA69D37F0BB1013BD377AA6AC0
S1130670EB690E4E0132B342AA6213D09C68013C6E
S11306809C607CB920271A68D968DC605660EA61EE
S113069084F311881869884787F31188EB699A688D
S11306A0002AF0D0F8BD00BF08E6FF1F24E6FF1FB4
S11306B0054B4FF0FF3003F11C0200215862996290
S11306C0DA611A62704700BF08E6FF1FAFF30080CB
S11306D070B40D4EF469A5680361A942C26004D9DF
S11306E02468491BA5688D42FAD36368436004609B
S11306F0186060608160A3684FF0FF32591AA160EE
S1130700726270BC704700BF08E6FF1FAFF3008041
S113071003688268416830B49D68064C2A449A6034
S11307200B60056800224FF0FF336960C2606362AA
S113073030BC704708E6FF1FAFF30080AFF30080C2
S113074010B4202383F31188037F072B0ED8DFE82E
S113075003F0270D0D2308040D08026A9368013382
S1130760936090E80C001A60026853604FF0FF3405
S1130770002281680D4B046202771B689A688A42E2
S1130780FBD25A684260036000211060586081F314
S113079011885DF8044B7047036A00221A60E5E78C
S11307A0002383F311885DF8044B704708E6FF1FAC
S11307B0034B00221B605B601B615B619A607047A6
S11307C008E6FF1FAFF30080AFF30080AFF30080B3
S11307D000228168084B10B4044602771B689A68AB
S11307E08A42FBD25A6862602360204614605C60CF
S11307F05DF8044B704700BF08E6FF1FAFF30080AD
S1130800084B30B41A6899691468087701251420D4
S1130810C877636015771C60104630BC9A61FFF797
S113082067BE00BF08E6FF1FAFF30080AFF3008090
S113083030B54B1C87B012D00C4C0D4AA369054649
S113084001A8FFF745FF2846FFF7DAFF049B13B121
S113085001A8FFF75DFFA369186A07B030BD034C18
S1130860FFF7CEFFA369186A07B030BD08E6FF1F83
S113087041070000AFF30080AFF30080AFF30080C6
S1130880144BF0B49F698468BD680162AC420646AB
S11308904FF000020BD802771B689A689442FBD988
S11308A05A687260336016605E60F0BC70473A77D5
S11308B01A4612689468A542FBD9506878600124EE
S11308C03A60076057603477394630469E61F0BC21
S11308D0FFF70EBE08E6FF1FAFF30080AFF3008002
S11308E0084B9A691B68D17F9B68906821B9834241
S11308F034BF002001207047834294BF00200120B0
S1130900704700BF08E6FF1FAFF30080AFF300801D
S11309100E4A1068F0B40368956913600127142621
S11309200021AC685A6007779061EE77297700E080
S11309301B689A68A242FBD25A686A602B602946F7
S113094015605D60F0BCFFF7D3BD00BF08E6FF1F74
S11309500D4A106870B4036895691360012600217C
S1130960AC685A6006779061297700E01B689A6842
S1130970A242FBD85A686A602B60294615605D6004
S113098070BCFFF7B5BD00BF08E6FF1FAFF30080E2
S1130990034B9B69DB7F0BB1FFF7DABFFFF7B8BFEF
S11309A008E6FF1FAFF30080AFF30080AFF30080D1
S11309B02DE9F041104CC16366694661002200F1E3
S11309C028054FF002084FF0140C4FF0010E00F10F
S11309D024078160046180F81C8080F81FC080F8BF
S11309E01EE04277826342638261306160614762E4
S11309F08562C562BDE8F08108E6FF1FAFF30080A1
S1130A002DE9F84F96460446202282F311881A4EA7
S1130A10DFF868B0726924394718C760002543506D
S1130A2000F1240C00F128030A9979604FF0020ABE
S1130A304FF014094FF00108C7F820B02946C0F858
S1130A4008E006614261C0F83CE080F81CA080F830
S1130A501F9080F81E80457785634563856110612A
S1130A60C0F824C08362C3627061FFF709FF85F395
S1130A7011882046BDE8F88F08E6FF1F0105000035
S1130A8008B50146202383F311880820FFF7D0FE20
S1130A90002383F3118808BDAFF30080AFF3008017
S1130AA038B50E4B9C69636A206204F124059D42AB
S1130AB007D01A6862621846FFF78AFE636AAB427F
S1130AC0F7D1637F9B0704D1636922691A612269A4
S1130AD053610F20BDE83840FFF792BE08E6FF1FC0
S1130AE0202383F31188FFF7DBBF00BFAFF300803F
S1130AF069B1084B10B4024644689B69042083E83A
S1130B001400236053605DF8044BFFF791BE4FF06F
S1130B10FF30704708E6FF1FAFF30080AFF300809B
S1130B2002689042034609D010B4146804606360FC
S1130B30116210465DF8044BFFF74ABE704700BFD0
S1130B400023006040608360704700BFAFF3008003
S1130B50436B027F19430A2A41630AD00B2A00D04F
S1130B607047036A19408B42FAD100230362FFF7EE
S1130B702FBE036A1942F8D1704700BFAFF300805B
S1130B8070B50468A04206460D460DD0E3682B43B9
S1130B90E36015B12269134203D06068A168FFF7CE
S1130BA0D7FF2468A642F1D170BD00BFAFF3008027
S1130BB030B4029C046200250A448560026100602E
S1130BC04060C16081614161C36130BC704700BF56
S1130BD043698269934210B510D082685C1C01326B
S1130BE0826044611970426903699A4201D3C368FF
S1130BF043610021FFF794FF002010BD8268002AA2
S1130C00EBD06FF0030010BDAFF30080AFF30080B2
S1130C1070B520230E46044683F31188C3692BB1B3
S1130C20984703E0FFF764FF002815DBA56820461A
S1130C303146002DF6D0A169A36825694A1C013B01
S1130C40AA42A360A26128BFE368087828BFA36111
S1130C50002383F3118870BD85F3118870BD00BF34
S1130C602DE9F04F044683B0894693461D46D0F8DB
S1130C701C80202787F3118800260197B246B8F11B
S1130C80000F05D02046C04702E0FFF731FFE0B96E
S1130C90A76820462946002FF7D0A269A368511CF3
S1130CA0013BA161A360137809F8013B2369A269A0
S1130CB09A4224BFE368A3618AF311880136B345DD
S1130CC005D0019B83F31188D9E787F31188304657
S1130CD003B0BDE8F08F00BFAFF30080AFF3008036
S1130CE030B4029C04628D1805610060406082602B
S1130CF0C16081614161C36130BC7047AFF3008062
S1130D00F8B504460F461646202383F3118803E002
S1130D10FFF7EEFE002819DBA56820463146002DBA
S1130D20F6D06269A368511C013B6161A36017702E
S1130D30236962699A4224BFE3686361E3690BB182
S1130D4020469847002080F31188F8BD85F3118868
S1130D50F8BD00BFAFF30080AFF30080AFF30080B5
S1130D6038B5426983699A420FD082680569591C73
S1130D70013282608161A9421C7801D3C368836116
S1130D800021FFF7CDFE204638BD8268002AECD052
S1130D906FF0020038BD00BFAFF30080AFF30080F6
S1130DA02DE9F04F83B004468B4616460193D0F8E4
S1130DB01C804FF0200989F311880027CDF800909A
S1130DC0BA46A5680BF10109204615B36369A56805
S1130DD0591C013D6161A5609BF8001019702369DD
S1130DE06169994224BFE3686361B8F1000F00D0E0
S1130DF0C0478AF31188013E07F1010711D0009B17
S1130E0083F31188A568CB460BF101092046002D18
S1130E10DCD120460199FFF76BFE0028D1D085F381
S1130E201188384603B0BDE8F08F00BFAFF30080EF
S1130E30054A064B0648074922F0070223F0070338
S1130E4002600B60704700BF57E8FF1F00200020BE
S1130E505CE7FF1F58E7FF1FAFF30080AFF300808C
S1130E6010B4202383F31188094C0A4B22681968B3
S1130E70C31D23F00703891A8B429DBF9B1823606F
S1130E8010460020002383F311885DF8044B70475B
S1130E905CE7FF1F58E7FF1FAFF30080AFF300804C
S1130EA0024A034B10681B68C01A704758E7FF1FBB
S1130EB05CE7FF1FAFF30080AFF30080AFF3008067
S1130EC0044B054A1A6003F1100000229A60DA60AC
S1130ED0FFF736BE60E7FF1F610E0000AFF300802E
S1130EE0EFF30983203383F30988002383F3118804
S1130EF0704700BFAFF30080AFF30080AFF3008012
S1130F00202383F311880F4B5B6813F4006302D131
S1130F1083F31188704710B5EFF309844FF08073A1
S1130F2044F8043CA4F1200383F30988FFF7D8FCB8
S1130F3018B1054B44F8083C10BD044B44F8083C78
S1130F4010BD00BF00ED00E0110500001405000015
S1130F5008B500F0DDF8064800F0EAF900F018F8EA
S1130F6000F076F800F07CFCBDE8084000F008B81A
S1130F70401E0000AFF30080AFF30080AFF30080A9
S1130F8000F056BCAFF30080AFF30080AFF30080F5
S1130F9000F0A6BBAFF30080AFF30080AFF3008096
S1130FA00122002380E80C00704700BFAFF30080EB
S1130FB010B52023044683F31188416000F0B8FB88
S1130FC002232360002383F3118810BDAFF3008054
S1130FD00C30FFF745BE00BFAFF30080AFF30080D5
S1130FE00C304FF0FF33FFF73BBE00BFAFF3008080
S1130FF03030FFF7D5BE00BFAFF30080AFF3008001
S113100030304FF0FF33FFF7CBBE00BFAFF30080AB
S11310100C30FFF7FDBD00BFAFF30080AFF30080DD
S11310200C304FF0FF31FFF7F3BD00BFAFF300808A
S11310303030FFF765BE00BFAFF30080AFF3008030
S113104030304FF0FF32FFF75BBE00BFAFF30080DC
S113105000F0FEB9AFF30080AFF30080AFF300807F
S113106070B50E4B044682B040F8043B0126009450
S11310700B461546606004F1540104F10C00A660AF
S11310801022FFF795FD00942B4604F1300004F183
S113109064011022FFF724FE02B070BD101E000090
S11310A010B52023044683F3118800F0E1F90223EC
S11310B0A360002383F3118810BD00BFAFF3008049
S11310C043099B0010B403F1604300F1604404F54C
S11310D0614403F56143090100F01F0001228240CD
S11310E0C9B284F80013C3F880211A605DF8044B78
S11310F0704700BFAFF30080AFF30080AFF3008010
S113110000F1604000F56D400901C9B201767047F5
S1131110704700BFAFF30080AFF30080AFF30080EF
S11311202DE9F043354D364EDFF8DC80354FDFF8DE
S1131130DCE0DFF8DCC00FCD89B06C460FC495E865
S11311400F004CF220594DF6281584E80F00A6F83C
S11311500E90F581338823F001031B0441F2380219
S11311601B0C338058F8023043F4785348F80230AB
S113117000238422CEF84830CEF84C308CF800306E
S11311807A707A7842F010027A70ADF1040252F863
S1131190041FB1F5807F2BD00133082BF7D1B8237E
S11311A0184A137093799D07FCD5164A9379DC0687
S11311B0FCD414498B79134A03F00C03082BF9D19E
S11311C0032140231171114653718B799806FCD584
S11311D00C498A790B4B5206FBD500221A701A4629
S11311E0937903F00C030C2BFAD109B0BDE8F0831A
S11311F0DB0003F0380343F08003D1E7401D000017
S11312000020054000400640007004400090044067
S113121000500640AFF30080AFF30080AFF30080CE
S11312200123062A30B403FA01F34469364D26D06B
S113123024EA0303A84243615FD0344B984258D058
S1131240334B984257D04033984258D0314C324BAC
S1131250A0420CBF18460020102A0ED8DFE802F086
S11312601736173A3F3617440D0D171D2227092C40
S113127031004FF4A06340F8213030BC7047234361
S1131280A84243613DD0214B9842D9D123484FF421
S1131290807340F8213030BC70474FF4007340F83D
S11312A02130EAE74FF4407340F82130E5E74FF48A
S11312B0806340F82130E0E74FF4C06340F8213008
S11312C0DBE74FF4E06340F82130D6E7002340F831
S11312D02130D2E740F2031340F82130CDE74FF438
S11312E0817340F82130C8E74FF4907340F82130FF
S11312F0C3E70A48B0E70A48AEE70A48ACE70A4839
S1131300AAE70848C3E700BF00F00F4040F00F40D1
S113131080F00F4000F10F4000D0044000A00440D2
S113132000B004400090044000C00440AFF30080CB
S11313300C4941F23802F8B58B5843F478538B507A
S1131340064600F5257735460024E1B2306855F8A5
S1131350042F0134FFF764FF202CF6D18436BE42FB
S1131360F1D1F8BD00700440AFF30080AFF300800A
S113137038B50C4D6C6F23791B0600D438BD05F1CC
S11313803000FFF7EDFC002806DBC0B2E071E37823
S113139043F08003E37038BD281D0821BDE83840C0
S11313A0FFF7EEBB80E7FF1FAFF30080AFF30080D1
S11313B070B52348456F2C79E4B2A2060DD52023DD
S11313C083F31188436973B1E9791E48FFF700FC80
S11313D0002812DB002383F31188230612D4BDE80E
S11313E07040FFF78DBD04300421FFF7C9FBE97994
S11313F01448FFF7EDFB0028ECDA13488021FFF7CF
S1131400BFFBE7E7202686F311881048FFF7A8FC06
S1131410002484F31188A04205DBC0B2E871BDE862
S11314207040FFF76DBD86F3118807480821FFF768
S1131430A7FB84F31188EB7803F07F03EB70CEE70E
S113144080E7FF1F8CE7FF1F84E7FF1FB0E7FF1F44
S113145010B5044C044A20460021FFF701FE034B5B
S1131460636710BD80E7FF1F7113000000A00640F2
S11314701E4B8268002908BF1946012A00D0704714
S11314801B4B9842FBD170B41A4D436F41F23404A4
S113149002F1B762285940F480602851D87809686D
S11314A0002602F55842B2FBF1F200F0F301D970C4
S11314B09E701978C2F3443001F0E0010143C2F395
S11314C0471019705870997A02F01F0201F0E00178
S11314D00A439A72DA780F2142F02C02DA70997179
S11314E010200C2170BCFFF7EBBD00BF301E0000C4
S11314F080E7FF1F00700440AFF30080AFF300806B
S1131500124B4FF0FF322DE9F041D3F8A060104F99
S1131510DFF84080C3F8A0200024012502E0013454
S1131520142C0ED005FA04F33342F8D0E15DD8F858
S11315300430084803EB011301345B689847142C0A
S1131540F0D1BDE8F041FFF7DBBC00BF00900440E0
S11315502CE8FF1FF8E7FF1FAFF30080AFF3008014
S1131560124B4FF0FF322DE9F041D3F8A060104F39
S1131570DFF84080C3F8A0200024012502E00134F4
S1131580142C0ED005FA04F33342F8D0E15DD8F8F8
S11315900430084803EB011301345B689847142CAA
S11315A0F0D1BDE8F041FFF7ABBC00BF00A00440A0
S11315B018E8FF1FF8E7FF1FAFF30080AFF30080C8
S11315C0124B4FF0FF322DE9F041D3F8A060104FD9
S11315D0DFF84080C3F8A0200024012502E0013494
S11315E00C2C0ED005FA04F33342F8D0E15DD8F8A0
S11315F00430084803EB011301345B6898470C2C52
S1131600F0D1BDE8F041FFF77BBC00BF00B004405F
S11316100CE8FF1FF8E7FF1FAFF30080AFF3008073
S1131620124B4FF0FF322DE9F041D3F8A060104F78
S1131630DFF84080C3F8A0200024012502E0013433
S1131640082C0ED005FA04F33342F8D0E15DD8F843
S11316500430084803EB011301345B689847082CF5
S1131660F0D1BDE8F041FFF74BBC00BF00C004401F
S113167004E8FF1FF8E7FF1FAFF30080AFF300801B
S1131680124B10B5D3F8A0404FF0FF32C3F8A0209E
S1131690E20705D4A3070DD4BDE81040FFF730BC22
S11316A00B4B0C481978436803EB01135B689847AC
S11316B0A307F1D5064B07485978436803EB011398
S11316C05B689847BDE81040FFF71ABC00D004409F
S11316D000E8FF1FF8E7FF1FAFF30080AFF30080BF
S11316E00148FFF75DBC00BFF8E7FF1FAFF30080C0
S11316F0426809015358D80715D4980710D413F039
S1131700030318BF4FF43023083150185158406870
S113171051F8202022F47022134341F820307047FE
S11317204FF42023F0E74FF41023EDE7AFF30080EC
S113173038B50368012B05463ED06A682949936889
S11317401468D2688B421AD027498B4224D0274987
S11317508B4225D026498B4226D026498B4227D05E
S1131760610706D4002B3CD053F8221043F8221012
S113177038BD28460021BDE83840FFF7B9BF1E4BED
S1131780002199546307F4D46A689368D26853F8C3
S1131790221043F8221038BD184B00219954F1E768
S11317A0174B00219954EDE7164B00219954E9E7B2
S11317B0154B00219954E5E728200321FFF780FC0D
S11317C029200321FFF77CFC2A200321FFF778FC62
S11317D02B200321FFF774FC2C200321FFF770FC5E
S11317E0ABE738BD0090044000A0044000B00440C2
S11317F000C0044000D004402CE8FF1F18E8FF1F7D
S11318000CE8FF1F04E8FF1F00E8FF1FAFF3008090
S113181008B5202383F31188FEF722FF002383F306
S11318201188BDE80840FFF76BBB00BFAFF3008031
S1131830054B4BF67F3000210722586099600B203E
S113184008211A60FFF75CBC10E000E0AFF30080F1
S1131850FFF766BCAFF30080AFF30080AFF3008006
S1131860704700BFAFF30080AFF30080AFF3008098
S1131870014B01221A70704740E8FF1FAFF300804C
S113188080B5FFF765FB1F4D1F4F204E204CFEF720
S113189097FE00F075F81F4B1F491A68286800F07E
S11318A037FA2D68FFF7FCFA1C490246284600F077
S11318B02FFA1B4B08224FF002084FF001091025A4
S11318C0B56048467A60C3F80490C7F80480FFF70F
S11318D0D7F84846C7F80880FFF7D2F8384641469B
S11318E0C7F804800322FFF79BFC0E480E49FFF75C
S11318F05FFB4FF4FA70FFF7C3F82378002BF8D09E
S1131900F560F6E748E8FF1F80F00F4000F00F4055
S113191040E8FF1F00E6FF1FF02000001C2100002C
S113192040F00F40F8E7FF1FE0200000AFF3008015
S1131930034BEFF3098295461A6000BEFEE700BF31
S113194044E8FF1FAFF30080AFF30080AFF30080E3
S1131950FEE700BFAFF30080AFF30080AFF3008079
S1131960FEE700BFAFF30080AFF30080AFF3008069
S1131970FEE700BFAFF30080AFF30080AFF3008059
S113198010B5054C05492046FFF78AFB044B1C6043
S1131990BDE8104000F0CCB980E7FF1F40210000F3
S11319A048E8FF1FAFF30080AFF30080AFF300807F
S11319B0F0B400F10B073C460D46B1FBF2F602FB16
S11319C0161101F13003392BC8BF01F13703DBB223
S11319D004F8013DB5FBF2F53146002DEDD13A1B7B
S11319E0024401E014F8013F00F8013B9042F9D1B0
S11319F0F0BC7047AFF30080AFF30080AFF300801A
S1131A002DE9F04F87B015460DF10D0303AA9B1A7B
S1131A1081468A4601934FF000088B469BF80010DC
S1131A200BF1010379B1252911D0D9F800209B4687
S1131A309268484690479BF8001008F101080BF1A2
S1131A4001030029EFD1404607B0BDE8F08F9BF8B1
S1131A5001202D2A03BF9BF802200BF102034FF053
S1131A60010A4FF0000A302A03BF5A7801333027A5
S1131A702027591C002606E02B7804359BF800200B
S1131A8003EB40060131A2F13003DBB2092B8B4694
S1131A9006EB8600F2D92A2AEED02E2A4FF0000156
S1131AA043D002F0DF034C2B4ED0A2F14400342883
S1131AB000F2F780DFE810F0EA00F500F500F50029
S1131AC0F500EA00F500F500F500F500F500E80082
S1131AD0F500F500F500F500F500DD00F500F50072
S1131AE0F200F500F500F500F500F500F500F5004D
S1131AF0F500F500F500A100EA00F500F500F50099
S1131B00F500EA00F500F500F500F500F500E80041
S1131B10F500F500F5007100F500DD00F500F500B5
S1131B20F2002B78043503EB40011BF8012BA2F1E2
S1131B303003DBB2092B01EB8100F4D92A2AF0D05F
S1131B4002F0DF034C2BB0D19BF80030002B00F0E7
S1131B50A880A3F144020BF1010B342A00F2A08007
S1131B60DFE802F0949E9E9E9E949E9E9E9E9E9270
S1131B709E9E9E9E9E879E9E9C9E9E9E9E9E9E9E9A
S1131B809E9E9E4B949E9E9E9E949E9E9E9E9E92E4
S1131B909E9E9E1B9E879E9E9C002C685A4B002CEA
S1131BA008BF1C4604352378002900F09480002BDC
S1131BB000F096800139204601E0013903D410F881
S1131BC0013F002BF9D1001B361A431E202726EAB9
S1131BD0E676BAF1000F1FD0002B009334DA002E02
S1131BE03FF41CAF3446D9F8003048469B68394668
S1131BF09847013CF7D1B04410E72B688DF80C30BE
S1131C00019B043518462027013B03AC361A26EA0B
S1131C10E676BAF1000FDFD10093C6F1000ABAF1FB
S1131C20000F45D021782D2947D05646D9F80030E9
S1131C3048469B68394698470136F7D1009B002BEC
S1131C40CAEB0808FFF6EAAEDDF800A0D9F80030C8
S1131C5014F8011B9B680AF1FF3A48469847BAF109
S1131C60FF3FF3D1009B08F10108002BA8BF984463
S1131C70B5E70A22296803A80435FFF799FE03ABE8
S1131C80C01A431E03ACC1E70822F3E72968002900
S1131C9005F104052EDB03A80A22EEE71022E9E78A
S1131CA01A46019B8DF80C20184603AC013BADE7A6
S1131CB0009B002B5646C7DAB0E6302FB5D1D9F8D1
S1131CC0003048469B689847009B013B013408F16B
S1131CD001080093A9E747F6FE71002B7FF46BAF70
S1131CE026EAE676BAF1000F0BD14FF0FF330093EA
S1131CF0202792E72D2349428DF80C300DF10D0079
S1131D00CAE720276BE700BF80210000AFF3008003
S1131D100EB400B582B003AA52F8041B0192FFF777
S1131D206FFE02B05DF804EB03B07047AFF30080C0
S1131D30014B1B60704700BF4CE8FF1FAFF30080EE
S1131D4020000000400000008000000000010000AE
S1131D50000200000004000000050000000600006E
S1131D608C21000050E8FF1F50E8FF1F50E8FF1FC0
S1131D708C210000000000000000000000000000B2
S1131D808C210000000000000000000000000000A2
S1131D908C21000000000000000000000000000092
S1131DA08C21000000000000000000000000000082
S1131DB08C21000000000000000000000000000072
S1131DC08C21000000000000000000000000000062
S1131DD08C21000000000000000000000000000052
S1131DE069646C6500000000000000000000000051
S1131DF06D61696E00164318040444080C1014182D
S1131E00001C1D1E1F000000000000000000000058
S1131E1001100000E10F000041100000211000003B
S1131E203110000011100000F10F0000D10F00006C
S1131E300096000000000000000000000000000008
S1131E4000F00F40100000000B0000000B00000029
S1131E501000000006000000010000000100000066
S1131E60010000000100000001000000010000006A
S1131E70010000000100000001000000010000005A
S1131E800100000001000000010000000500000046
S1131E900500000001000000010000000100000036
S1131EA0010000000100000001000000010000002A
S1131EB0010000000100000001000000010000001A
S1131EC00100000040F00F40060000000200000086
S1131ED001000000010000000100000001000000FA
S1131EE001000000010000000100000001000000EA
S1131EF001000000010000000100000001000000DA
S1131F0001000000010000000100000001000000C9
S1131F1001000000010000000100000001000000B9
S1131F2001000000010000000100000001000000A9
S1131F300100000001000000010000000100000099
S1131F40010000000100000080F00F4001000000CB
S1131F50060000000200000006000000020000006D
S1131F600200000002000000020000000100000066
S1131F700100000001000000010000000100000059
S1131F800100000001000000010000000100000049
S1131F900100000001000000010000000100000039
S1131FA00100000001000000010000000100000029
S1131FB00100000001000000010000000100000019
S1131FC0010000000100000001000000C0F00F400B
S1131FD001000000010000000100000001000000F9
S1131FE001000000010000000100000001000000E9
S1131FF001000000010000000100000001000000D9
S113200001000000010000000100000001000000C8
S113201001000000010000000100000001000000B8
S113202001000000010000000100000001000000A8
S11320300100000001000000010000000100000098
S11320400100000001000000010000000100000088
S113205000F10F4001000000010000000100000039
S11320600100000001000000010000000100000068
S11320700100000001000000010000000100000058
S11320800100000001000000010000000100000048
S11320900100000001000000010000000100000038
S11320A00100000001000000010000000100000028
S11320B00100000001000000010000000100000018
S11320C00100000001000000010000000100000008
S11320D001000000000000000000000000000000FB
S11320E00600000071180000009004400100000088
S11320F00D0A0D0A4E655456435220626F6F746C7C
S11321006F616465722E20204261736564206F6E76
S1132110206275696C642025730D0A00436F726533
S11321202066726565206D656D6F7279203A202591
S1132130642062797465730D0A00000000000000D9
S113214000C20100000000000000000000000000C8
S113215035653636626365663238306236326331ED
S113216030323039343332383838356236313831F8
S113217062623637336563370000000000000000F8
S10B2180286E756C6C29000047
S107218850210000DE
S113218C040000001400000003000000474E55003A
S113219CB1E65E2F400B9CB8A551C854E6BDD95A84
S10721AC932ED599FC
S9030421D7
